{
  "_format": "hh-sol-artifact-1",
  "contractName": "BangCap",
  "sourceName": "contracts/BangCap.sol",
  "abi": [
    {
      "inputs": [],
      "stateMutability": "nonpayable",
      "type": "constructor"
    },
    {
      "anonymous": false,
      "inputs": [
        {
          "indexed": true,
          "internalType": "bytes32",
          "name": "maHash",
          "type": "bytes32"
        },
        {
          "indexed": false,
          "internalType": "string",
          "name": "maSinhVien",
          "type": "string"
        }
      ],
      "name": "DaCapBang",
      "type": "event"
    },
    {
      "inputs": [],
      "name": "admin",
      "outputs": [
        {
          "internalType": "address",
          "name": "",
          "type": "address"
        }
      ],
      "stateMutability": "view",
      "type": "function"
    },
    {
      "inputs": [
        {
          "internalType": "bytes32",
          "name": "_maHash",
          "type": "bytes32"
        },
        {
          "internalType": "string",
          "name": "_ten",
          "type": "string"
        },
        {
          "internalType": "string",
          "name": "_maSV",
          "type": "string"
        },
        {
          "internalType": "string",
          "name": "_loai",
          "type": "string"
        }
      ],
      "name": "capBang",
      "outputs": [],
      "stateMutability": "nonpayable",
      "type": "function"
    },
    {
      "inputs": [
        {
          "internalType": "bytes32",
          "name": "",
          "type": "bytes32"
        }
      ],
      "name": "danhSachBang",
      "outputs": [
        {
          "internalType": "string",
          "name": "tenSinhVien",
          "type": "string"
        },
        {
          "internalType": "string",
          "name": "maSinhVien",
          "type": "string"
        },
        {
          "internalType": "string",
          "name": "loaiBang",
          "type": "string"
        },
        {
          "internalType": "uint256",
          "name": "ngayCap",
          "type": "uint256"
        },
        {
          "internalType": "address",
          "name": "nguoiCap",
          "type": "address"
        },
        {
          "internalType": "bool",
          "name": "laHopLe",
          "type": "bool"
        }
      ],
      "stateMutability": "view",
      "type": "function"
    },
    {
      "inputs": [
        {
          "internalType": "bytes32",
          "name": "_maHash",
          "type": "bytes32"
        }
      ],
      "name": "traCuuBang",
      "outputs": [
        {
          "components": [
            {
              "internalType": "string",
              "name": "tenSinhVien",
              "type": "string"
            },
            {
              "internalType": "string",
              "name": "maSinhVien",
              "type": "string"
            },
            {
              "internalType": "string",
              "name": "loaiBang",
              "type": "string"
            },
            {
              "internalType": "uint256",
              "name": "ngayCap",
              "type": "uint256"
            },
            {
              "internalType": "address",
              "name": "nguoiCap",
              "type": "address"
            },
            {
              "internalType": "bool",
              "name": "laHopLe",
              "type": "bool"
            }
          ],
          "internalType": "struct BangCap.ThongTinBang",
          "name": "",
          "type": "tuple"
        }
      ],
      "stateMutability": "view",
      "type": "function"
    }
  ],
  "bytecode": "0x608060405234801561001057600080fd5b5033600160006101000a81548173ffffffffffffffffffffffffffffffffffffffff021916908373ffffffffffffffffffffffffffffffffffffffff160217905550611131806100616000396000f3fe608060405234801561001057600080fd5b506004361061004c5760003560e01c806311007d01146100515780635aa8fc271461006d57806393c5a6341461009d578063f851a440146100d2575b600080fd5b61006b60048036038101906100669190610986565b6100f0565b005b61008760048036038101906100829190610a41565b610324565b6040516100949190610bf9565b60405180910390f35b6100b760048036038101906100b29190610a41565b610581565b6040516100c996959493929190610c92565b60405180910390f35b6100da610782565b6040516100e79190610d08565b60405180910390f35b600160009054906101000a900473ffffffffffffffffffffffffffffffffffffffff1673ffffffffffffffffffffffffffffffffffffffff163373ffffffffffffffffffffffffffffffffffffffff1614610180576040517f08c379a000000000000000000000000000000000000000000000000000000000815260040161017790610d6f565b60405180910390fd5b600080600086815260200190815260200160002060030154146101d8576040517f08c379a00000000000000000000000000000000000000000000000000000000081526004016101cf90610ddb565b60405180910390fd5b6040518060c001604052808481526020018381526020018281526020014281526020013373ffffffffffffffffffffffffffffffffffffffff1681526020016001151581525060008086815260200190815260200160002060008201518160000190816102459190611007565b50602082015181600101908161025b9190611007565b5060408201518160020190816102719190611007565b506060820151816003015560808201518160040160006101000a81548173ffffffffffffffffffffffffffffffffffffffff021916908373ffffffffffffffffffffffffffffffffffffffff16021790555060a08201518160040160146101000a81548160ff021916908315150217905550905050837f6ff0038670e411c322633a14cbec0722d870c2bf967fd891137e481179c761708360405161031691906110d9565b60405180910390a250505050565b61032c6107a8565b6000808381526020019081526020016000206040518060c001604052908160008201805461035990610e2a565b80601f016020809104026020016040519081016040528092919081815260200182805461038590610e2a565b80156103d25780601f106103a7576101008083540402835291602001916103d2565b820191906000526020600020905b8154815290600101906020018083116103b557829003601f168201915b505050505081526020016001820180546103eb90610e2a565b80601f016020809104026020016040519081016040528092919081815260200182805461041790610e2a565b80156104645780601f1061043957610100808354040283529160200191610464565b820191906000526020600020905b81548152906001019060200180831161044757829003601f168201915b5050505050815260200160028201805461047d90610e2a565b80601f01602080910402602001604051908101604052809291908181526020018280546104a990610e2a565b80156104f65780601f106104cb576101008083540402835291602001916104f6565b820191906000526020600020905b8154815290600101906020018083116104d957829003601f168201915b50505050508152602001600382015481526020016004820160009054906101000a900473ffffffffffffffffffffffffffffffffffffffff1673ffffffffffffffffffffffffffffffffffffffff1673ffffffffffffffffffffffffffffffffffffffff1681526020016004820160149054906101000a900460ff1615151515815250509050919050565b60006020528060005260406000206000915090508060000180546105a490610e2a565b80601f01602080910402602001604051908101604052809291908181526020018280546105d090610e2a565b801561061d5780601f106105f25761010080835404028352916020019161061d565b820191906000526020600020905b81548152906001019060200180831161060057829003601f168201915b50505050509080600101805461063290610e2a565b80601f016020809104026020016040519081016040528092919081815260200182805461065e90610e2a565b80156106ab5780601f10610680576101008083540402835291602001916106ab565b820191906000526020600020905b81548152906001019060200180831161068e57829003601f168201915b5050505050908060020180546106c090610e2a565b80601f01602080910402602001604051908101604052809291908181526020018280546106ec90610e2a565b80156107395780601f1061070e57610100808354040283529160200191610739565b820191906000526020600020905b81548152906001019060200180831161071c57829003601f168201915b5050505050908060030154908060040160009054906101000a900473ffffffffffffffffffffffffffffffffffffffff16908060040160149054906101000a900460ff16905086565b600160009054906101000a900473ffffffffffffffffffffffffffffffffffffffff1681565b6040518060c0016040528060608152602001606081526020016060815260200160008152602001600073ffffffffffffffffffffffffffffffffffffffff1681526020016000151581525090565b6000604051905090565b600080fd5b600080fd5b6000819050919050565b61081d8161080a565b811461082857600080fd5b50565b60008135905061083a81610814565b92915050565b600080fd5b600080fd5b6000601f19601f8301169050919050565b7f4e487b7100000000000000000000000000000000000000000000000000000000600052604160045260246000fd5b6108938261084a565b810181811067ffffffffffffffff821117156108b2576108b161085b565b5b80604052505050565b60006108c56107f6565b90506108d1828261088a565b919050565b600067ffffffffffffffff8211156108f1576108f061085b565b5b6108fa8261084a565b9050602081019050919050565b82818337600083830152505050565b6000610929610924846108d6565b6108bb565b90508281526020810184848401111561094557610944610845565b5b610950848285610907565b509392505050565b600082601f83011261096d5761096c610840565b5b813561097d848260208601610916565b91505092915050565b600080600080608085870312156109a05761099f610800565b5b60006109ae8782880161082b565b945050602085013567ffffffffffffffff8111156109cf576109ce610805565b5b6109db87828801610958565b935050604085013567ffffffffffffffff8111156109fc576109fb610805565b5b610a0887828801610958565b925050606085013567ffffffffffffffff811115610a2957610a28610805565b5b610a3587828801610958565b91505092959194509250565b600060208284031215610a5757610a56610800565b5b6000610a658482850161082b565b91505092915050565b600081519050919050565b600082825260208201905092915050565b60005b83811015610aa8578082015181840152602081019050610a8d565b60008484015250505050565b6000610abf82610a6e565b610ac98185610a79565b9350610ad9818560208601610a8a565b610ae28161084a565b840191505092915050565b6000819050919050565b610b0081610aed565b82525050565b600073ffffffffffffffffffffffffffffffffffffffff82169050919050565b6000610b3182610b06565b9050919050565b610b4181610b26565b82525050565b60008115159050919050565b610b5c81610b47565b82525050565b600060c0830160008301518482036000860152610b7f8282610ab4565b91505060208301518482036020860152610b998282610ab4565b91505060408301518482036040860152610bb38282610ab4565b9150506060830151610bc86060860182610af7565b506080830151610bdb6080860182610b38565b5060a0830151610bee60a0860182610b53565b508091505092915050565b60006020820190508181036000830152610c138184610b62565b905092915050565b600082825260208201905092915050565b6000610c3782610a6e565b610c418185610c1b565b9350610c51818560208601610a8a565b610c5a8161084a565b840191505092915050565b610c6e81610aed565b82525050565b610c7d81610b26565b82525050565b610c8c81610b47565b82525050565b600060c0820190508181036000830152610cac8189610c2c565b90508181036020830152610cc08188610c2c565b90508181036040830152610cd48187610c2c565b9050610ce36060830186610c65565b610cf06080830185610c74565b610cfd60a0830184610c83565b979650505050505050565b6000602082019050610d1d6000830184610c74565b92915050565b7f42616e206b686f6e6720706861692041646d696e210000000000000000000000600082015250565b6000610d59601583610c1b565b9150610d6482610d23565b602082019050919050565b60006020820190508181036000830152610d8881610d4c565b9050919050565b7f42616e67206e617920646120746f6e2074616921000000000000000000000000600082015250565b6000610dc5601483610c1b565b9150610dd082610d8f565b602082019050919050565b60006020820190508181036000830152610df481610db8565b9050919050565b7f4e487b7100000000000000000000000000000000000000000000000000000000600052602260045260246000fd5b60006002820490506001821680610e4257607f821691505b602082108103610e5557610e54610dfb565b5b50919050565b60008190508160005260206000209050919050565b60006020601f8301049050919050565b600082821b905092915050565b600060088302610ebd7fffffffffffffffffffffffffffffffffffffffffffffffffffffffffffffffff82610e80565b610ec78683610e80565b95508019841693508086168417925050509392505050565b6000819050919050565b6000610f04610eff610efa84610aed565b610edf565b610aed565b9050919050565b6000819050919050565b610f1e83610ee9565b610f32610f2a82610f0b565b848454610e8d565b825550505050565b600090565b610f47610f3a565b610f52818484610f15565b505050565b5b81811015610f7657610f6b600082610f3f565b600181019050610f58565b5050565b601f821115610fbb57610f8c81610e5b565b610f9584610e70565b81016020851015610fa4578190505b610fb8610fb085610e70565b830182610f57565b50505b505050565b600082821c905092915050565b6000610fde60001984600802610fc0565b1980831691505092915050565b6000610ff78383610fcd565b9150826002028217905092915050565b61101082610a6e565b67ffffffffffffffff8111156110295761102861085b565b5b6110338254610e2a565b61103e828285610f7a565b600060209050601f831160018114611071576000841561105f578287015190505b6110698582610feb565b8655506110d1565b601f19841661107f86610e5b565b60005b828110156110a757848901518255600182019150602085019450602081019050611082565b868310156110c457848901516110c0601f891682610fcd565b8355505b6001600288020188555050505b505050505050565b600060208201905081810360008301526110f38184610c2c565b90509291505056fea264697066735822122038b9ceef2ac9f0964a9beb51f3024ea3298d76ccaca738eff8e96f948baa695164736f6c63430008180033",
  "linkReferences": {},
  "deployedLinkReferences": {}
}